{
  "transactions": [
    {
      "hash": "0x04706516a5fe2d44e4d60322ac737fbe02c3506d00e002cf940401a6f1d44021",
      "transactionType": "CREATE",
      "contractName": "TicketTracker",
      "contractAddress": "0x63C332621c6617f6F2783Cf4E1F5cF720D0D915b",
      "function": null,
      "arguments": [
        "\"SOMEEVENT\"",
        "\"SEV\""
      ],
      "transaction": {
        "type": "0x02",
        "from": "0x240002adc8bb5cbdea1ab229cacf7a4dd6fdd6a2",
        "gas": "0x21db62",
        "value": "0x0",
        "data": "0x60806040523480156200001157600080fd5b5060405162001fed38038062001fed8339810160408190526200003491620001b1565b3382826000620000458382620002aa565b506001620000548282620002aa565b5050506001600160a01b0381166200008657604051631e4fbdf760e01b81526000600482015260240160405180910390fd5b62000091816200009a565b50505062000376565b600680546001600160a01b038381166001600160a01b0319831681179093556040519116919082907f8be0079c531659141344cd1fd0a4f28419497f9722a3daafe3b4186f6b6457e090600090a35050565b634e487b7160e01b600052604160045260246000fd5b600082601f8301126200011457600080fd5b81516001600160401b0380821115620001315762000131620000ec565b604051601f8301601f19908116603f011681019082821181831017156200015c576200015c620000ec565b816040528381526020925086838588010111156200017957600080fd5b600091505b838210156200019d57858201830151818301840152908201906200017e565b600093810190920192909252949350505050565b60008060408385031215620001c557600080fd5b82516001600160401b0380821115620001dd57600080fd5b620001eb8683870162000102565b935060208501519150808211156200020257600080fd5b50620002118582860162000102565b9150509250929050565b600181811c908216806200023057607f821691505b6020821081036200025157634e487b7160e01b600052602260045260246000fd5b50919050565b601f821115620002a557600081815260208120601f850160051c81016020861015620002805750805b601f850160051c820191505b81811015620002a1578281556001016200028c565b5050505b505050565b81516001600160401b03811115620002c657620002c6620000ec565b620002de81620002d784546200021b565b8462000257565b602080601f831160018114620003165760008415620002fd5750858301515b600019600386901b1c1916600185901b178555620002a1565b600085815260208120601f198616915b82811015620003475788860151825594840194600190910190840162000326565b5085821015620003665787850151600019600388901b60f8161c191681555b5050505050600190811b01905550565b611c6780620003866000396000f3fe6080604052600436106101665760003560e01c806370a08231116100d15780639cb04aef1161008a578063b88d4fde11610064578063b88d4fde1461045c578063c87b56dd1461047c578063e985e9c51461049c578063f2fde38b146104bc57600080fd5b80639cb04aef146103c0578063a22cb465146103fb578063af296da11461041b57600080fd5b806370a0823114610315578063715018a61461033557806374bc86561461034a5780638da5cb5b14610377578063953865c11461039557806395d89b41146103ab57600080fd5b80631b2ef1ca116101235780631b2ef1ca1461026d57806323b872dd146102805780633ccfd60b146102a057806342842e0e146102b5578063632cdbf6146102d55780636352211e146102f557600080fd5b806301ffc9a71461016b57806306fdde03146101a0578063081812fc146101c2578063095ea7b3146101fa5780630ef7ec741461021c57806318160ddd14610249575b600080fd5b34801561017757600080fd5b5061018b610186366004611572565b6104dc565b60405190151581526020015b60405180910390f35b3480156101ac57600080fd5b506101b561052e565b60405161019791906115df565b3480156101ce57600080fd5b506101e26101dd3660046115f2565b6105c0565b6040516001600160a01b039091168152602001610197565b34801561020657600080fd5b5061021a610215366004611627565b6105e9565b005b34801561022857600080fd5b5061023c6102373660046115f2565b6105f8565b6040516101979190611651565b34801561025557600080fd5b5061025f60085481565b604051908152602001610197565b61021a61027b366004611695565b61065a565b34801561028c57600080fd5b5061021a61029b3660046116b7565b61078c565b3480156102ac57600080fd5b5061021a61081c565b3480156102c157600080fd5b5061021a6102d03660046116b7565b610898565b3480156102e157600080fd5b5061021a6102f036600461179f565b6108b8565b34801561030157600080fd5b506101e26103103660046115f2565b6109ad565b34801561032157600080fd5b5061025f61033036600461185e565b6109b8565b34801561034157600080fd5b5061021a610a00565b34801561035657600080fd5b5061036a6103653660046115f2565b610a14565b6040516101979190611879565b34801561038357600080fd5b506006546001600160a01b03166101e2565b3480156103a157600080fd5b5061025f60075481565b3480156103b757600080fd5b506101b5610cf2565b3480156103cc57600080fd5b5061018b6103db366004611922565b600a60209081526000928352604080842090915290825290205460ff1681565b34801561040757600080fd5b5061021a61041636600461194e565b610d01565b34801561042757600080fd5b506101e2610436366004611695565b600b6020908152600092835260408084209091529082529020546001600160a01b031681565b34801561046857600080fd5b5061021a61047736600461198a565b610d0c565b34801561048857600080fd5b506101b56104973660046115f2565b610d24565b3480156104a857600080fd5b5061018b6104b7366004611a06565b610d99565b3480156104c857600080fd5b5061021a6104d736600461185e565b610dc7565b60006001600160e01b031982166380ac58cd60e01b148061050d57506001600160e01b03198216635b5e139f60e01b145b8061052857506301ffc9a760e01b6001600160e01b03198316145b92915050565b60606000805461053d90611a30565b80601f016020809104026020016040519081016040528092919081815260200182805461056990611a30565b80156105b65780601f1061058b576101008083540402835291602001916105b6565b820191906000526020600020905b81548152906001019060200180831161059957829003601f168201915b5050505050905090565b60006105cb82610e02565b506000828152600460205260409020546001600160a01b0316610528565b6105f4828233610e3b565b5050565b6000818152600c602090815260409182902080548351818402810184019094528084526060939283018282801561064e57602002820191906000526020600020905b81548152602001906001019080831161063a575b50505050509050919050565b8160000361066757600080fd5b60075482111561067657600080fd5b60008281526009602052604090206002015434101561069457600080fd5b6000828152600b602090815260408083208484529091529020546001600160a01b0316156106c157600080fd5b6000828152600960205260409020600401548111156106df57600080fd5b6000828152600960205260408120600301805460019290610701908490611a80565b90915550506000828152600a6020908152604080832033808552908352818420805460ff19166001908117909155868552600b8452828520868652845282852080546001600160a01b031916909217909155858452600c835290832080549182018155835290822001829055600880549161077b83611a93565b91905055506105f433600854610e48565b6001600160a01b0382166107bb57604051633250574960e11b8152600060048201526024015b60405180910390fd5b60006107c8838333610e62565b9050836001600160a01b0316816001600160a01b031614610816576040516364283d7b60e01b81526001600160a01b03808616600483015260248201849052821660448201526064016107b2565b50505050565b610824610f5b565b60006108386006546001600160a01b031690565b6001600160a01b03164760405160006040518083038185875af1925050503d8060008114610882576040519150601f19603f3d011682016040523d82523d6000602084013e610887565b606091505b505090508061089557600080fd5b50565b6108b383838360405180602001604052806000815250610d0c565b505050565b6108c0610f5b565b600780549060006108d083611a93565b91905055506040518061010001604052806007548152602001878152602001868152602001858152602001858152602001848152602001838152602001828152506009600060075481526020019081526020016000206000820151816000015560208201518160010190816109459190611af2565b5060408201516002820155606082015160038201556080820151600482015560a082015160058201906109789082611af2565b5060c0820151600682019061098d9082611af2565b5060e082015160078201906109a29082611af2565b505050505050505050565b600061052882610e02565b60006001600160a01b0382166109e4576040516322718ad960e21b8152600060048201526024016107b2565b506001600160a01b031660009081526003602052604090205490565b610a08610f5b565b610a126000610f88565b565b610a5c60405180610100016040528060008152602001606081526020016000815260200160008152602001600081526020016060815260200160608152602001606081525090565b600960008381526020019081526020016000206040518061010001604052908160008201548152602001600182018054610a9590611a30565b80601f0160208091040260200160405190810160405280929190818152602001828054610ac190611a30565b8015610b0e5780601f10610ae357610100808354040283529160200191610b0e565b820191906000526020600020905b815481529060010190602001808311610af157829003601f168201915b50505050508152602001600282015481526020016003820154815260200160048201548152602001600582018054610b4590611a30565b80601f0160208091040260200160405190810160405280929190818152602001828054610b7190611a30565b8015610bbe5780601f10610b9357610100808354040283529160200191610bbe565b820191906000526020600020905b815481529060010190602001808311610ba157829003601f168201915b50505050508152602001600682018054610bd790611a30565b80601f0160208091040260200160405190810160405280929190818152602001828054610c0390611a30565b8015610c505780601f10610c2557610100808354040283529160200191610c50565b820191906000526020600020905b815481529060010190602001808311610c3357829003601f168201915b50505050508152602001600782018054610c6990611a30565b80601f0160208091040260200160405190810160405280929190818152602001828054610c9590611a30565b8015610ce25780601f10610cb757610100808354040283529160200191610ce2565b820191906000526020600020905b815481529060010190602001808311610cc557829003601f168201915b5050505050815250509050919050565b60606001805461053d90611a30565b6105f4338383610fda565b610d1784848461078c565b6108163385858585611079565b6060610d2f82610e02565b506000610d4760408051602081019091526000815290565b90506000815111610d675760405180602001604052806000815250610d92565b80610d71846111a4565b604051602001610d82929190611bb2565b6040516020818303038152906040525b9392505050565b6001600160a01b03918216600090815260056020908152604080832093909416825291909152205460ff1690565b610dcf610f5b565b6001600160a01b038116610df957604051631e4fbdf760e01b8152600060048201526024016107b2565b61089581610f88565b6000818152600260205260408120546001600160a01b03168061052857604051637e27328960e01b8152600481018490526024016107b2565b6108b38383836001611237565b6105f482826040518060200160405280600081525061133d565b6000828152600260205260408120546001600160a01b0390811690831615610e8f57610e8f818486611355565b6001600160a01b03811615610ecd57610eac600085600080611237565b6001600160a01b038116600090815260036020526040902080546000190190555b6001600160a01b03851615610efc576001600160a01b0385166000908152600360205260409020805460010190555b60008481526002602052604080822080546001600160a01b0319166001600160a01b0389811691821790925591518793918516917fddf252ad1be2c89b69c2b068fc378daa952ba7f163c4a11628f55a4df523b3ef91a4949350505050565b6006546001600160a01b03163314610a125760405163118cdaa760e01b81523360048201526024016107b2565b600680546001600160a01b038381166001600160a01b0319831681179093556040519116919082907f8be0079c531659141344cd1fd0a4f28419497f9722a3daafe3b4186f6b6457e090600090a35050565b6001600160a01b03821661100c57604051630b61174360e31b81526001600160a01b03831660048201526024016107b2565b6001600160a01b03838116600081815260056020908152604080832094871680845294825291829020805460ff191686151590811790915591519182527f17307eab39ab6107e8899845ad3d59bd9653f200f220920489ca2b5937696c31910160405180910390a3505050565b6001600160a01b0383163b1561119d57604051630a85bd0160e11b81526001600160a01b0384169063150b7a02906110bb908890889087908790600401611be1565b6020604051808303816000875af19250505080156110f6575060408051601f3d908101601f191682019092526110f391810190611c14565b60015b61115f573d808015611124576040519150601f19603f3d011682016040523d82523d6000602084013e611129565b606091505b50805160000361115757604051633250574960e11b81526001600160a01b03851660048201526024016107b2565b805181602001fd5b6001600160e01b03198116630a85bd0160e11b1461119b57604051633250574960e11b81526001600160a01b03851660048201526024016107b2565b505b5050505050565b606060006111b1836113b9565b600101905060008167ffffffffffffffff8111156111d1576111d16116f3565b6040519080825280601f01601f1916602001820160405280156111fb576020820181803683370190505b5090508181016020015b600019016f181899199a1a9b1b9c1cb0b131b232b360811b600a86061a8153600a850494508461120557509392505050565b808061124b57506001600160a01b03821615155b1561130d57600061125b84610e02565b90506001600160a01b038316158015906112875750826001600160a01b0316816001600160a01b031614155b801561129a57506112988184610d99565b155b156112c35760405163a9fbf51f60e01b81526001600160a01b03841660048201526024016107b2565b811561130b5783856001600160a01b0316826001600160a01b03167f8c5be1e5ebec7d5bd14f71427d1e84f3dd0314c0f7b2291e5b200ac8c7c3b92560405160405180910390a45b505b5050600090815260046020526040902080546001600160a01b0319166001600160a01b0392909216919091179055565b6113478383611491565b6108b3336000858585611079565b6113608383836114f6565b6108b3576001600160a01b03831661138e57604051637e27328960e01b8152600481018290526024016107b2565b60405163177e802f60e01b81526001600160a01b0383166004820152602481018290526044016107b2565b60008072184f03e93ff9f4daa797ed6e38ed64bf6a1f0160401b83106113f85772184f03e93ff9f4daa797ed6e38ed64bf6a1f0160401b830492506040015b6d04ee2d6d415b85acef81000000008310611424576d04ee2d6d415b85acef8100000000830492506020015b662386f26fc10000831061144257662386f26fc10000830492506010015b6305f5e100831061145a576305f5e100830492506008015b612710831061146e57612710830492506004015b60648310611480576064830492506002015b600a83106105285760010192915050565b6001600160a01b0382166114bb57604051633250574960e11b8152600060048201526024016107b2565b60006114c983836000610e62565b90506001600160a01b038116156108b3576040516339e3563760e11b8152600060048201526024016107b2565b60006001600160a01b038316158015906115545750826001600160a01b0316846001600160a01b0316148061153057506115308484610d99565b8061155457506000828152600460205260409020546001600160a01b038481169116145b949350505050565b6001600160e01b03198116811461089557600080fd5b60006020828403121561158457600080fd5b8135610d928161155c565b60005b838110156115aa578181015183820152602001611592565b50506000910152565b600081518084526115cb81602086016020860161158f565b601f01601f19169290920160200192915050565b602081526000610d9260208301846115b3565b60006020828403121561160457600080fd5b5035919050565b80356001600160a01b038116811461162257600080fd5b919050565b6000806040838503121561163a57600080fd5b6116438361160b565b946020939093013593505050565b6020808252825182820181905260009190848201906040850190845b818110156116895783518352928401929184019160010161166d565b50909695505050505050565b600080604083850312156116a857600080fd5b50508035926020909101359150565b6000806000606084860312156116cc57600080fd5b6116d58461160b565b92506116e36020850161160b565b9150604084013590509250925092565b634e487b7160e01b600052604160045260246000fd5b600067ffffffffffffffff80841115611724576117246116f3565b604051601f8501601f19908116603f0116810190828211818310171561174c5761174c6116f3565b8160405280935085815286868601111561176557600080fd5b858560208301376000602087830101525050509392505050565b600082601f83011261179057600080fd5b610d9283833560208501611709565b60008060008060008060c087890312156117b857600080fd5b863567ffffffffffffffff808211156117d057600080fd5b6117dc8a838b0161177f565b97506020890135965060408901359550606089013591508082111561180057600080fd5b61180c8a838b0161177f565b9450608089013591508082111561182257600080fd5b61182e8a838b0161177f565b935060a089013591508082111561184457600080fd5b5061185189828a0161177f565b9150509295509295509295565b60006020828403121561187057600080fd5b610d928261160b565b6020815281516020820152600060208301516101008060408501526118a26101208501836115b3565b91506040850151606085015260608501516080850152608085015160a085015260a0850151601f19808685030160c08701526118de84836115b3565b935060c08701519150808685030160e08701526118fb84836115b3565b935060e087015191508086850301838701525061191883826115b3565b9695505050505050565b6000806040838503121561193557600080fd5b823591506119456020840161160b565b90509250929050565b6000806040838503121561196157600080fd5b61196a8361160b565b91506020830135801515811461197f57600080fd5b809150509250929050565b600080600080608085870312156119a057600080fd5b6119a98561160b565b93506119b76020860161160b565b925060408501359150606085013567ffffffffffffffff8111156119da57600080fd5b8501601f810187136119eb57600080fd5b6119fa87823560208401611709565b91505092959194509250565b60008060408385031215611a1957600080fd5b611a228361160b565b91506119456020840161160b565b600181811c90821680611a4457607f821691505b602082108103611a6457634e487b7160e01b600052602260045260246000fd5b50919050565b634e487b7160e01b600052601160045260246000fd5b8181038181111561052857610528611a6a565b600060018201611aa557611aa5611a6a565b5060010190565b601f8211156108b357600081815260208120601f850160051c81016020861015611ad35750805b601f850160051c820191505b8181101561119b57828155600101611adf565b815167ffffffffffffffff811115611b0c57611b0c6116f3565b611b2081611b1a8454611a30565b84611aac565b602080601f831160018114611b555760008415611b3d5750858301515b600019600386901b1c1916600185901b17855561119b565b600085815260208120601f198616915b82811015611b8457888601518255948401946001909101908401611b65565b5085821015611ba25787850151600019600388901b60f8161c191681555b5050505050600190811b01905550565b60008351611bc481846020880161158f565b835190830190611bd881836020880161158f565b01949350505050565b6001600160a01b0385811682528416602082015260408101839052608060608201819052600090611918908301846115b3565b600060208284031215611c2657600080fd5b8151610d928161155c56fea2646970667358221220aa76ff405fe14d9b8edf172e98bf0871df9e1703d3e6135e1fabbf4c8df1dae964736f6c63430008150033000000000000000000000000000000000000000000000000000000000000004000000000000000000000000000000000000000000000000000000000000000800000000000000000000000000000000000000000000000000000000000000009534f4d454556454e54000000000000000000000000000000000000000000000000000000000000000000000000000000000000000000000000000000000000035345560000000000000000000000000000000000000000000000000000000000",
        "nonce": "0x26",
        "accessList": []
      },
      "additionalContracts": [],
      "isFixedGasLimit": false
    },
    {
      "hash": "0x343e97531ceb6c4b373ad85280b9d9676981ef2b0b1b42ad5d32234c47df4b0a",
      "transactionType": "CALL",
      "contractName": "TicketTracker",
      "contractAddress": "0x63C332621c6617f6F2783Cf4E1F5cF720D0D915b",
      "function": "addOccation(string,uint256,uint256,string,string,string)",
      "arguments": [
        "\"UFC Miami\"",
        "3000000000000000000",
        "0",
        "\"May 31\"",
        "\"6:00PM EST\"",
        "\"Miami-Dade Arena - Miami, FL\""
      ],
      "transaction": {
        "type": "0x02",
        "from": "0x240002adc8bb5cbdea1ab229cacf7a4dd6fdd6a2",
        "to": "0x63c332621c6617f6f2783cf4e1f5cf720d0d915b",
        "gas": "0x43942",
        "value": "0x0",
        "data": "0x632cdbf600000000000000000000000000000000000000000000000000000000000000c000000000000000000000000000000000000000000000000029a2241af62c000000000000000000000000000000000000000000000000000000000000000000000000000000000000000000000000000000000000000000000000000000000100000000000000000000000000000000000000000000000000000000000000014000000000000000000000000000000000000000000000000000000000000001800000000000000000000000000000000000000000000000000000000000000009554643204d69616d69000000000000000000000000000000000000000000000000000000000000000000000000000000000000000000000000000000000000064d61792033310000000000000000000000000000000000000000000000000000000000000000000000000000000000000000000000000000000000000000000a363a3030504d2045535400000000000000000000000000000000000000000000000000000000000000000000000000000000000000000000000000000000001c4d69616d692d44616465204172656e61202d204d69616d692c20464c00000000",
        "nonce": "0x27",
        "accessList": []
      },
      "additionalContracts": [],
      "isFixedGasLimit": false
    },
    {
      "hash": "0xb929cd9cababc7169dc3b32f01ffd9f938173cfc8d6e1d97a491a9bdd81a7809",
      "transactionType": "CALL",
      "contractName": "TicketTracker",
      "contractAddress": "0x63C332621c6617f6F2783Cf4E1F5cF720D0D915b",
      "function": "addOccation(string,uint256,uint256,string,string,string)",
      "arguments": [
        "\"ETH Tokyo\"",
        "10000000000000000",
        "125",
        "\"Jun 2\"",
        "\"1:00PM JST\"",
        "\"Tokyo, Japan\""
      ],
      "transaction": {
        "type": "0x02",
        "from": "0x240002adc8bb5cbdea1ab229cacf7a4dd6fdd6a2",
        "to": "0x63c332621c6617f6f2783cf4e1f5cf720d0d915b",
        "gas": "0x4b9c6",
        "value": "0x0",
        "data": "0x632cdbf600000000000000000000000000000000000000000000000000000000000000c0000000000000000000000000000000000000000000000000002386f26fc10000000000000000000000000000000000000000000000000000000000000000007d000000000000000000000000000000000000000000000000000000000000010000000000000000000000000000000000000000000000000000000000000001400000000000000000000000000000000000000000000000000000000000000180000000000000000000000000000000000000000000000000000000000000000945544820546f6b796f000000000000000000000000000000000000000000000000000000000000000000000000000000000000000000000000000000000000054a756e2032000000000000000000000000000000000000000000000000000000000000000000000000000000000000000000000000000000000000000000000a313a3030504d204a535400000000000000000000000000000000000000000000000000000000000000000000000000000000000000000000000000000000000c546f6b796f2c204a6170616e0000000000000000000000000000000000000000",
        "nonce": "0x28",
        "accessList": []
      },
      "additionalContracts": [],
      "isFixedGasLimit": false
    },
    {
      "hash": "0x00d2aaa6741d13cac40e63549050adbe7f29c812eb3877d7f1309ff1b4af701f",
      "transactionType": "CALL",
      "contractName": "TicketTracker",
      "contractAddress": "0x63C332621c6617f6F2783Cf4E1F5cF720D0D915b",
      "function": "addOccation(string,uint256,uint256,string,string,string)",
      "arguments": [
        "\"ETH Privacy Hackathon\"",
        "250000000000000000",
        "200",
        "\"Jun 9\"",
        "\"10:00AM TRT\"",
        "\"Turkey, Istanbul\""
      ],
      "transaction": {
        "type": "0x02",
        "from": "0x240002adc8bb5cbdea1ab229cacf7a4dd6fdd6a2",
        "to": "0x63c332621c6617f6f2783cf4e1f5cf720d0d915b",
        "gas": "0x4bb02",
        "value": "0x0",
        "data": "0x632cdbf600000000000000000000000000000000000000000000000000000000000000c000000000000000000000000000000000000000000000000003782dace9d9000000000000000000000000000000000000000000000000000000000000000000c800000000000000000000000000000000000000000000000000000000000001000000000000000000000000000000000000000000000000000000000000000140000000000000000000000000000000000000000000000000000000000000018000000000000000000000000000000000000000000000000000000000000000154554482050726976616379204861636b6174686f6e000000000000000000000000000000000000000000000000000000000000000000000000000000000000054a756e2039000000000000000000000000000000000000000000000000000000000000000000000000000000000000000000000000000000000000000000000b31303a3030414d2054525400000000000000000000000000000000000000000000000000000000000000000000000000000000000000000000000000000000105475726b65792c20497374616e62756c00000000000000000000000000000000",
        "nonce": "0x29",
        "accessList": []
      },
      "additionalContracts": [],
      "isFixedGasLimit": false
    },
    {
      "hash": "0x9c4e1b40b5f575a00c586b1adeffc2edb16bd4f618a2da95415d21b4c95366b0",
      "transactionType": "CALL",
      "contractName": "TicketTracker",
      "contractAddress": "0x63C332621c6617f6F2783Cf4E1F5cF720D0D915b",
      "function": "addOccation(string,uint256,uint256,string,string,string)",
      "arguments": [
        "\"Dallas Mavericks vs. San Antonio Spurs\"",
        "5000000000000000000",
        "50",
        "\"Jun 11\"",
        "\"2:30PM CST\"",
        "\"American Airlines Center - Dallas, TX\""
      ],
      "transaction": {
        "type": "0x02",
        "from": "0x240002adc8bb5cbdea1ab229cacf7a4dd6fdd6a2",
        "to": "0x63c332621c6617f6f2783cf4e1f5cf720d0d915b",
        "gas": "0x65a9e",
        "value": "0x0",
        "data": "0x632cdbf600000000000000000000000000000000000000000000000000000000000000c00000000000000000000000000000000000000000000000004563918244f4000000000000000000000000000000000000000000000000000000000000000000320000000000000000000000000000000000000000000000000000000000000120000000000000000000000000000000000000000000000000000000000000016000000000000000000000000000000000000000000000000000000000000001a0000000000000000000000000000000000000000000000000000000000000002644616c6c6173204d6176657269636b732076732e2053616e20416e746f6e696f205370757273000000000000000000000000000000000000000000000000000000000000000000000000000000000000000000000000000000000000000000064a756e2031310000000000000000000000000000000000000000000000000000000000000000000000000000000000000000000000000000000000000000000a323a3330504d20435354000000000000000000000000000000000000000000000000000000000000000000000000000000000000000000000000000000000025416d65726963616e204169726c696e65732043656e746572202d2044616c6c61732c205458000000000000000000000000000000000000000000000000000000",
        "nonce": "0x2a",
        "accessList": []
      },
      "additionalContracts": [],
      "isFixedGasLimit": false
    },
    {
      "hash": "0xc3b497a85004271a97fbdeae956088342551c9d9fee593ee415a054dc981a493",
      "transactionType": "CALL",
      "contractName": "TicketTracker",
      "contractAddress": "0x63C332621c6617f6F2783Cf4E1F5cF720D0D915b",
      "function": "addOccation(string,uint256,uint256,string,string,string)",
      "arguments": [
        "\"ETH Global Toronto\"",
        "1500000000000000000",
        "125",
        "\"Jun 23\"",
        "\"11:00AM EST\"",
        "\"Toronto, Canada\""
      ],
      "transaction": {
        "type": "0x02",
        "from": "0x240002adc8bb5cbdea1ab229cacf7a4dd6fdd6a2",
        "to": "0x63c332621c6617f6f2783cf4e1f5cf720d0d915b",
        "gas": "0x47789",
        "value": "0x0",
        "data": "0x632cdbf600000000000000000000000000000000000000000000000000000000000000c000000000000000000000000000000000000000000000000014d1120d7b160000000000000000000000000000000000000000000000000000000000000000007d000000000000000000000000000000000000000000000000000000000000010000000000000000000000000000000000000000000000000000000000000001400000000000000000000000000000000000000000000000000000000000000180000000000000000000000000000000000000000000000000000000000000001245544820476c6f62616c20546f726f6e746f000000000000000000000000000000000000000000000000000000000000000000000000000000000000000000064a756e2032330000000000000000000000000000000000000000000000000000000000000000000000000000000000000000000000000000000000000000000b31313a3030414d20455354000000000000000000000000000000000000000000000000000000000000000000000000000000000000000000000000000000000f546f726f6e746f2c2043616e6164610000000000000000000000000000000000",
        "nonce": "0x2b",
        "accessList": []
      },
      "additionalContracts": [],
      "isFixedGasLimit": false
    }
  ],
  "receipts": [
    {
      "transactionHash": "0x04706516a5fe2d44e4d60322ac737fbe02c3506d00e002cf940401a6f1d44021",
      "transactionIndex": "0x17",
      "blockHash": "0x8f490cae2c6de92faf25d61e827e96abc0f4a1afd1ed492cd231512c8000c023",
      "blockNumber": "0x50d745",
      "from": "0x240002adc8Bb5cbDEa1AB229cacf7A4dd6fDD6a2",
      "to": null,
      "cumulativeGasUsed": "0x39eaf8",
      "gasUsed": "0x1a0d44",
      "contractAddress": "0x63C332621c6617f6F2783Cf4E1F5cF720D0D915b",
      "logs": [
        {
          "address": "0x63C332621c6617f6F2783Cf4E1F5cF720D0D915b",
          "topics": [
            "0x8be0079c531659141344cd1fd0a4f28419497f9722a3daafe3b4186f6b6457e0",
            "0x0000000000000000000000000000000000000000000000000000000000000000",
            "0x000000000000000000000000240002adc8bb5cbdea1ab229cacf7a4dd6fdd6a2"
          ],
          "data": "0x",
          "blockHash": "0x8f490cae2c6de92faf25d61e827e96abc0f4a1afd1ed492cd231512c8000c023",
          "blockNumber": "0x50d745",
          "transactionHash": "0x04706516a5fe2d44e4d60322ac737fbe02c3506d00e002cf940401a6f1d44021",
          "transactionIndex": "0x17",
          "logIndex": "0x21",
          "removed": false
        }
      ],
      "status": "0x1",
      "logsBloom": "0x00000000000000000000000000000000000000000000000000800000000000000000000000000000000000000000000000000000000000000000000000000000000000000000000000000000000000000001000000000000000000000000000000000000020001000000000000000810000000000000000000000000000000400000000000000000000000000008000000000000000000000000000000000000000000000000000000000000000000000000000000000000000000000000000000000000000000000000000000000000000000000000000000000000000020000000000000000000000000040000000000000000000000000000000000008000",
      "type": "0x2",
      "effectiveGasPrice": "0xbdf90225"
    },
    {
      "transactionHash": "0x343e97531ceb6c4b373ad85280b9d9676981ef2b0b1b42ad5d32234c47df4b0a",
      "transactionIndex": "0x18",
      "blockHash": "0x8f490cae2c6de92faf25d61e827e96abc0f4a1afd1ed492cd231512c8000c023",
      "blockNumber": "0x50d745",
      "from": "0x240002adc8Bb5cbDEa1AB229cacf7A4dd6fDD6a2",
      "to": "0x63C332621c6617f6F2783Cf4E1F5cF720D0D915b",
      "cumulativeGasUsed": "0x3cce4b",
      "gasUsed": "0x2e353",
      "contractAddress": null,
      "logs": [],
      "status": "0x1",
      "logsBloom": "0x00000000000000000000000000000000000000000000000000000000000000000000000000000000000000000000000000000000000000000000000000000000000000000000000000000000000000000000000000000000000000000000000000000000000000000000000000000000000000000000000000000000000000000000000000000000000000000000000000000000000000000000000000000000000000000000000000000000000000000000000000000000000000000000000000000000000000000000000000000000000000000000000000000000000000000000000000000000000000000000000000000000000000000000000000000000",
      "type": "0x2",
      "effectiveGasPrice": "0xbdf90225"
    },
    {
      "transactionHash": "0xb929cd9cababc7169dc3b32f01ffd9f938173cfc8d6e1d97a491a9bdd81a7809",
      "transactionIndex": "0x19",
      "blockHash": "0x8f490cae2c6de92faf25d61e827e96abc0f4a1afd1ed492cd231512c8000c023",
      "blockNumber": "0x50d745",
      "from": "0x240002adc8Bb5cbDEa1AB229cacf7A4dd6fDD6a2",
      "to": "0x63C332621c6617f6F2783Cf4E1F5cF720D0D915b",
      "cumulativeGasUsed": "0x40097e",
      "gasUsed": "0x33b33",
      "contractAddress": null,
      "logs": [],
      "status": "0x1",
      "logsBloom": "0x00000000000000000000000000000000000000000000000000000000000000000000000000000000000000000000000000000000000000000000000000000000000000000000000000000000000000000000000000000000000000000000000000000000000000000000000000000000000000000000000000000000000000000000000000000000000000000000000000000000000000000000000000000000000000000000000000000000000000000000000000000000000000000000000000000000000000000000000000000000000000000000000000000000000000000000000000000000000000000000000000000000000000000000000000000000",
      "type": "0x2",
      "effectiveGasPrice": "0xbdf90225"
    },
    {
      "transactionHash": "0x00d2aaa6741d13cac40e63549050adbe7f29c812eb3877d7f1309ff1b4af701f",
      "transactionIndex": "0x1a",
      "blockHash": "0x8f490cae2c6de92faf25d61e827e96abc0f4a1afd1ed492cd231512c8000c023",
      "blockNumber": "0x50d745",
      "from": "0x240002adc8Bb5cbDEa1AB229cacf7A4dd6fDD6a2",
      "to": "0x63C332621c6617f6F2783Cf4E1F5cF720D0D915b",
      "cumulativeGasUsed": "0x434589",
      "gasUsed": "0x33c0b",
      "contractAddress": null,
      "logs": [],
      "status": "0x1",
      "logsBloom": "0x00000000000000000000000000000000000000000000000000000000000000000000000000000000000000000000000000000000000000000000000000000000000000000000000000000000000000000000000000000000000000000000000000000000000000000000000000000000000000000000000000000000000000000000000000000000000000000000000000000000000000000000000000000000000000000000000000000000000000000000000000000000000000000000000000000000000000000000000000000000000000000000000000000000000000000000000000000000000000000000000000000000000000000000000000000000",
      "type": "0x2",
      "effectiveGasPrice": "0xbdf90225"
    },
    {
      "transactionHash": "0x9c4e1b40b5f575a00c586b1adeffc2edb16bd4f618a2da95415d21b4c95366b0",
      "transactionIndex": "0x1b",
      "blockHash": "0x8f490cae2c6de92faf25d61e827e96abc0f4a1afd1ed492cd231512c8000c023",
      "blockNumber": "0x50d745",
      "from": "0x240002adc8Bb5cbDEa1AB229cacf7A4dd6fDD6a2",
      "to": "0x63C332621c6617f6F2783Cf4E1F5cF720D0D915b",
      "cumulativeGasUsed": "0x47df2e",
      "gasUsed": "0x499a5",
      "contractAddress": null,
      "logs": [],
      "status": "0x1",
      "logsBloom": "0x00000000000000000000000000000000000000000000000000000000000000000000000000000000000000000000000000000000000000000000000000000000000000000000000000000000000000000000000000000000000000000000000000000000000000000000000000000000000000000000000000000000000000000000000000000000000000000000000000000000000000000000000000000000000000000000000000000000000000000000000000000000000000000000000000000000000000000000000000000000000000000000000000000000000000000000000000000000000000000000000000000000000000000000000000000000",
      "type": "0x2",
      "effectiveGasPrice": "0xbdf90225"
    },
    {
      "transactionHash": "0xc3b497a85004271a97fbdeae956088342551c9d9fee593ee415a054dc981a493",
      "transactionIndex": "0x1c",
      "blockHash": "0x8f490cae2c6de92faf25d61e827e96abc0f4a1afd1ed492cd231512c8000c023",
      "blockNumber": "0x50d745",
      "from": "0x240002adc8Bb5cbDEa1AB229cacf7A4dd6fDD6a2",
      "to": "0x63C332621c6617f6F2783Cf4E1F5cF720D0D915b",
      "cumulativeGasUsed": "0x4b1b15",
      "gasUsed": "0x33be7",
      "contractAddress": null,
      "logs": [],
      "status": "0x1",
      "logsBloom": "0x00000000000000000000000000000000000000000000000000000000000000000000000000000000000000000000000000000000000000000000000000000000000000000000000000000000000000000000000000000000000000000000000000000000000000000000000000000000000000000000000000000000000000000000000000000000000000000000000000000000000000000000000000000000000000000000000000000000000000000000000000000000000000000000000000000000000000000000000000000000000000000000000000000000000000000000000000000000000000000000000000000000000000000000000000000000",
      "type": "0x2",
      "effectiveGasPrice": "0xbdf90225"
    }
  ],
  "libraries": [],
  "pending": [],
  "returns": {},
  "timestamp": 1708052750,
  "chain": 11155111,
  "multi": false,
  "commit": "e1d0f5c"
}